:1017E9003132333435360000A8C0003F065B4F66FE
:1017F9006D7D077F6F000840014148BF86DBCFE65A
:05180900EDFD87FFEF7B
:08174500F5467B4B7D4B7F5301
:10174D008F2B8D2C8B2D85422E85432F85443085F7
:10175D0045318546327B007A00792B7D087C00026D
:02176D0017C1A2
:1018A300754400754500754600E4F547F548FB7A35
:0918B3000079237D08FC0216E90E
:1011CE007F0A7D0A7B0A7E0A7C0A7A0AE53ED39460
:1011DE00004002AF36E53ED394014002AD37E53E06
:1011EE00D394024002AB38E53ED394034002AE39AD
:1011FE00E53ED394044002AC3AE53ED3940540025A
:10120E00AA3BE53E7004AF3D802BE53EB40104AD34
:10121E003D8022E53EB40204AB3D8019E53EB403A9
:10122E0004AE3D8010E53EB40404AC3D8007E53EBF
:10123E00B40502AA3D8E428C438A44853E45853DC7
:04124E004602182E0E
:1018D5007F067836E4F608DFFCE4F53EF53D0211B7
:0118E500CE34
:10184E00E4FFEF9017E993C39430FE74362FF8E659
:0C185E006E60037F00220FBF06E87F01D0
:01186A00225B
:1015AF00E4F53CF5337FFF12194D75420A75430A76
:1015BF0075440AE4F545F5467B0A7D0A7F0A121841
:1015CF002E7D787C007F087E071212CF75424BE488
:1015DF00F543F544F545F5467B4F7D4B7F53021799
:0115EF004DAE
:1013BE000533E4FF12194D75420A75430A75440A46
:1013CE007545098533467B0A7D0A7F0A12182E7DE4
:1013DE00DC7C007FF47E011212CF754252853343BE
:1013EE00E4F544F545F5467B45121749E533C394BC
:1013FE00034020753C0175340B7535B87F81121989
:10140E004D75424B75431EE4F544F545F5467B4C50
:04141E001217492236
:1016AD00E52364537033E524644B702DE5256448C0
:1016BD007027E526644C7021752201F53CF5337FCA
:1016CD001812194D1218D5754244754359E4F54455
:0C16DD00F545F5467B521217490218A390
:100E0000E53C6003020EC5752201E4FF1215F0EF08
:100E10006401703E053DE53DD394094003E4F53D92
:100E200075420C75430C75440C853E45853D467BEB
:100E30000C7D0C7F0C12182E754259853E43853D62
:100E400044E4F5451217457D1E7C007FB07E0412F8
:100E500012CF7F011215F0EF640170427436253E07
:100E6000F8A63D053EE4F53D7D1EFC7F787E05122B
:100E700012CF754259853E43E4F54475450112177A
:100E800045E53EC39406401312184EEF6005121557
:100E9000AF800B1213BE1218D580031211CE7F0241
:100EA0001215F0BF011F1218D57D327C007F207E05
:100EB000031212CF75424CE4F543F544F545F5466F
:060EC0007B4312174922DA
:10176F00E53C6025D3E5359400E5349400401AE557
:10177F0035153570021534E5354534700CF53CF5EB
:0A178F00337F1812194D1218D522ED
:1018BC00E522601475424C7543497544567545458F
:0918CC00E4F5467B4112174922A4
:101422001218887D07E4FF12192B12186B12180E7E
:101432007F607E097D007C001213477522017F18B0
:1014420012194D1211CE1218A37BFF7A17796F7FF2
:10145200011212527BFF7A0E79007F041212527B24
:10146200FF7A1879BC7F031212527BFF7A1679AD8C
:0D1472007F0912125212195312166F80FBDF
:04179900151D151DE8
:10179D00121934A81DA60608A607A81DE6FE08E620
:0F17AD00FF4E600BEF24FFFFEE34FFFE12193DDD
:0517BC00051D051D22C2
:10180E0053B1EF43B21012195CE4F5D975DA49D22F
:10181E00DE90003F74FFF0A37417F0A37499F022CA
:0812CF008E3F8F408C418D42DF
:1012D700121934EF4E7066AF42AE4112193DC3E5A5
:1012E70040940AE53F9400404BE47B18FAF9F890E4
:1012F70017F01209A91208F0C006C007AE3FAF40A9
:10130700AB07AA06E4F9F8D007D0061208F0AB0736
:10131700AA06AFF9EFFEADE97C00E42DFFEC3ECF66
:101327002BCF3AAD07FCAF03AE021218E6D2D84373
:0F133700DA01800612195C53DAFE7F02227F036F
:011346002284
:0C191400121934EF4E7002FF227F0122F6
:100D1700E4F58090008EE0FFB40800505F900D2B43
:100D2700F8282873020D43020D49020D4F020D5595
:100D3700020D5B020D65020D6F020D79C2A3C2A2FF
:100D47008016C2A3C2A2801AC2A3C2A2801EC2A3D7
:100D5700C2A28022C2A3D2A2C2A1C2A08020C2A3E3
:100D6700D2A2C2A1D2A08016C2A3D2A2D2A1C2A0EF
:100D7700800CC2A3D2A2D2A1D2A08002D2A3C3EF79
:100D870064809488502990008EE0FF3395E0FE74CC
:100D9700852FF58274003EF583E0FF3395E0FE74FE
:100DA700F42FF58274173EF583E493F580801E9047
:100DB700008EE0FFB408133395E0FE74852FF582AB
:100DC70074003EF583E0F5808003E4F580900084AD
:100DD700E0FF90008EE004FEF0D3EF6480F8EE644D
:100DE70080984014E0D36480948850047408F022FB
:090DF700900083E090008EF022D0
:10188800E4F5937594FF5395F043960F90002A74EE
:0B189800FFF0A3740DF0A37417F02202
:09192B00900083EFF0A3EDF0221F
:10182E00900085EFF0A3EDF0A3EBF0A3E542F0A35B
:10183E00E543F0A3E544F0A3E545F0A3E546F02229
:06194D0090008DEFF02276
:100EC600011C00490090949400949400949400416D
:030ED600008F1E6C
:020B0700151DBA
:100B090020B206900090E014F020B306900093E024
:100B190014F0209706900096E014F090008FE014EE
:100B2900F06003020C27741EF0A81DE4F6A81DE668
:100B3900FFC3648094834003020C27EF3395E0FEE2
:100B490090009075F003EF1209C5EE75F003A42526
:100B590083F583E0C39480503990009175F003EFD9
:100B69001209C5EE75F003A42583F583E0D39480BB
:100B7900405AE6FF3395E0FE90009275F003EF12BC
:100B890009C5EE75F003A42583F5837401F0F51CFE
:100B9900803AA81DE6FF3395E0FE90009175F003B9
:100BA900EF1209C5EE75F003A42583F583E0C3941C
:100BB90080501990009275F003EF1209C5EE75F097
:100BC90003A42583F5837402F0751C01A81DE6FFB3
:100BD900FD3395E0FC90009075F003ED1209C5EC2A
:100BE90075F003A42583F583E0FE90009175F00369
:100BF900ED1209C5EC75F003A42583F583EEF0EF3A
:100C09003395E0FE90009075F003EF1209C5EE757B
:0E0C1900F003A42583F5837494F006020B36D5
:030C2700051D2286
:02190600151DAD
:09190800A81DA61CE4F51CE6FF75
:03191100051D228F
:10186B0090003074FFF0A37419F0A37406F090008D
:0D187B002D74FFF0A3740BF0A37407F0228E
:1015F000EF600764016003BF0233EFFD3395E0FC49
:1016000090009275F003ED1209C5EC75F003A42566
:1016100083F583E0FE90009275F003ED1209C5ECAE
:0F16200075F003A42583F583E4F0AF06227F0362
:01162F002298
:100ED9004100000A4100290A41006D0A040E000080
:100EE90000000114004600670000FFFF8FFFC10DDD
:100EF900C105C108C101C10E60240005FF195FFFCA
:100F0900195FFF195FFF195FFF195FFF195FFF196C
:100F19005FFF195FFF195FFF195FFF195FFF195F16
:100F29006036002AFF195FFF195FFF1959FF195F22
:100F3900FF1959FF195FFF1959FF195FFF195FFF62
:100F4900195FFF1959FF1959FF1959FF1959FF1944
:0A0F59005FFF195FFF195FFF195FCA
:01195F002265
:031959007F0022EA
:10152400438E805389F07BE07A2879017800901704
:10153400F01209A912156BEFF404F58A7BE07A28FE
:10154400790178009017F01209A912156BC3E49F72
:10155400FFE49EFE74019DFDE49CFC78081209954D
:071564008F8CD28CD2A9226A
:03000B000214D20A
:0414D200C0E0C0D0E6
:1014D600D5080A75084C300D020514D20DA2037208
:1014E600045036150AE50A7030850C0AD207300A10
:1014F60017E50D6007150D438F01801D538FFEC242
:10150600B5D51615C20A8011050BE50BD394064016
:0915160008C203E5136002D206CD
:05151F00D0D0D0E03245
:10147F00300E47C20E9017F01209A9781012099575
:10148F008E1A8F1B900003E0FEA3E0FFE4FCFD7BB0
:10149F0019FAF9F8120865C006C007AE1AAF1BABF0
:1014AF0007AA06E4F9F8D007D00612156B780312D5
:1014BF000995900065EEF0A3EFF0900065E0FEA3B4
:0214CF00E0FF3C
:0114D10022F8
:09193400900067E0FEA3E0FF2231
:09193D00900067EEF0A3EFF02228
:1018E60090006BEEF0A3EFF0900069ECF0A3EDF042
:0118F60022CF
:03195C00C2B422F0
:03003B00020F7C35
:100F7C00C0E0C083C082C0D075D000C004C005C022
:030F8C0006C00795
:100F8F0030DF04C2DF807D30DA04C2DA807630D9F8
:100F9F003DC2D9AFFBEFFEADEB7C00E42DFFEC3E85
:100FAF0020000E900001F0A3EFF075DB11D200804E
:100FBF0053FE900001E0FCA3E0FDC3EF9DFFEE9C0C
:100FCF00A3F0A3EFF075DB00C200D20E803630D84D
:100FDF0033C2D8900067E07002A3E06022B2B490F1
:100FEF000069E0FEA3E0F5EAEEF5FAA3E0FEA3E068
:100FFF00FF90006AE02FF0900069E03EF08005C29C
:04100F00B453DAFEFE
:10101300D007D006D005D004D0D0D082D083D0E082
:01102300329A
:06195300121524D2AF22A0
:101143003004047F0180027F00200A047E018002B4
:101153007E00EE5F6074E515C39509506830023672
:10116300750D01E515131313541FAB17AA18A9190D
:10117300F582758300120800FFE515540704FEEF9E
:10118300A806088002C333D8FC30D7057516038040
:101193002F751601802AAB17AA18A91975F002E555
:1011A30015A4F58285F083120800F50DE51575F099
:1011B30002A429F9EA35F0FA900001120800F516A5
:0A11C3000515D20A22C204438F1062
:0111CD0022FF
:100C2A00900000E014F0701F740AF0D205900029B9
:100C3A00E014F07012740AF0D20890006DE014F01B
:100C4A007005740AF0D20190002AA3E0FAA3E0F931
:100C5A001209D190002DA3E0FAA3E0F91209D1906C
:100C6A000039A3E0FAA3E0F91209D1900045A3E004
:100C7A00FAA3E0F91209D1900054A3E0FAA3E0F92B
:100C8A001209D190005DA3E0FAA3E0F91209D1900C
:100C9A00004BA3E0FAA3E0F91209D1EF600C90002F
:100CAA001DA3E0FAA3E0F91209D190004EA3E0FADD
:100CBA00A3E0F91209D1EF600E900020A3E0FAA395
:100CCA00E0F91209D1D20BE512D394004016D512DD
:100CDA003030090C900023A3E0FAA3E0F91209D1FD
:100CEA00D20C801D900051A3E0FAA3E0F91209D1B9
:100CFA00EF600E900023A3E0FAA3E0F91209D1D223
:0D0D0A000C900005A3E0FAA3E0F90209D166
:1010240090003FA3E0FAA3E0F91209D1900042A393
:10103400E0FAA3E0F91209D1900033A3E0FAA3E0A7
:10104400F91209D1900008A3E0FAA3E0F91209D13A
:10105400900030A3E0FAA3E0F91209D1EF600C90FC
:101064000011A3E0FAA3E0F91209D1900036A3E03D
:10107400FAA3E0F91209D1EF600C900017A3E0FA8B
:10108400A3E0F91209D1900048A3E0FAA3E0F91211
:1010940009D1EF600C90001AA3E0FAA3E0F9120959
:1010A400D130060EC206900026A3E0FAA3E0F9129E
:0310B40009D1223D
:1016300090000BA3E0FAA3E0F91209D190003CA3BB
:10164000E0FAA3E0F91209D1EF600C900014A3E0D6
:10165000FAA3E0F91209D1900057A3E0FAA3E0F948
:0F1660001209D190005AA3E0FAA3E0F90209D1D0
:10171A00AF11AE10AD0FAC0E9000601209B9900077
:10172A0064E514F0E4F511F510F50FF50EF51490D3
:0B173A00000EA3E0FAA3E0F90209D1C1
:10166F00300705C207121143300D05C20D120C2AA7
:10167F00300505C205121024300805C208121630B5
:10168F00300105C20112171AE5112401F511E435D5
:0E169F0010F510E4350FF50FE4350EF50E22B0
:101252008B3F8A408941EFB40C005070901265F8C0
:1012620028287302128902128E0212930212980225
:10127200129D0212A20212A70212AC0212B10212B3
:10128200B60212BB0212C0900005803590000880A1
:101292003090000B802B90000E8026900011802150
:1012A200900017801C900014801790001A801290F2
:1012B200001D800D90002080089000238003900084
:0D12C20026E53FF0A3E540F0A3E541F02252
:071946007B017A00796022A9
:100F630055006E00000000000000000000000000BB
:080F7300000001000000000075
:030023000209D7F8
:1009D700C0E0C0F0C083C082C0D075D000C000C0E6
:1009E70001C002C003C004C005C006C00730993B60
:1009F700C299900073E0FEA3E0FFC3900072E09FEE
:100A0700900071E09E501F90006EE0FBA3E0FAA3F8
:100A1700E0F9A3E475F00112084F85F082F583121F
:100A27000800F5998005900075E4F0209803020A04
:100A3700ECC298300B09C20B90007BE4F0A3F09056
:100A47000079E0FEA3E0FFA3E0FCA3E0FDC39FEC79
:100A57009E5077900076E0FBA3E0FAA3E0F98D8241
:100A67008C83E59912082D900081E0FEA3E0FFC377
:100A7700ED9FEC9E5046900079E0FCA3E0FDEF9DD2
:100A8700EE9C503890007EE0FBA3E0FAA3E0F990DB
:100A9700007BE0FEA3E0FFF5828E83120800FD9045
:100AA7000076E0FBA3E0FAA3E0F98F828E831208B9
:100AB700006D600890007B74FFF0A3F090007CE06D
:100AC70004F0700690007BE004F0900079E0FEA34C
:100AD700E0FFC390007CE09F90007BE09E40069083
:100AE700007D7401F0D007D006D005D004D003D024
:100AF70002D001D000D0D0D082D083D0F0D0E03265
:0218F700151DBD
:0A18F90090007DE0A81DF6FFE4F06A
:03190300051D229D
:101347008F428E418D408C3F759850438E40538E0F
:10135700FE53890FE47B04FAF9F89017F01209A9F4
:101367001208F0AB42AA41A940A83F1208F0EFF4D7
:1013770004F58BE47B04FAF9F89017F01209A91227
:1013870008F0AB42AA41A940A83F1208F0C3E49F66
:10139700FFE49EFE74019DFDE49CFC78081209821F
:1013A7008F8DC2ABD28ED2AC90004E74FFF0A37477
:0713B70018F0A374F7F02207
:1016E900900076EBF0A3EAF0A3E9F0A3ECF0A3ED08
:1016F900F0900081E547F0A3E548F090007EE544CD
:10170900F0A3E545F0A3E546F0D20BE490007DF0A7
:0117190022AD
:1017C100900075E0701F90006EEBF0A3EAF0A3E9C2
:1017D100F0E4A3F0A3F0A3ECF0A3EDF0A37401F007
:0817E100D2997F02227F03224E
:0B192000900075E07002FF227F0122A2
:030000000210B734
:0C10B700787FE4F6D8FD7581480210FE39
:10080000BB010CE58229F582E5833AF583E02250AD
:1008100006E92582F8E622BBFE06E92582F8E222F7
:0D082000E58229F582E5833AF583E4932211
:10082D00F8BB010DE58229F582E5833AF583E8F001
:10083D00225006E92582C8F622BBFE05E92582C8AD
:02084D00F22295
:10084F00A3F8E0C5F025F0F0E5821582700215835C
:06085F00E0C838F0E822B9
:10086500E88FF0A4CC8BF0A42CFCE98EF0A42CFC32
:100875008AF0EDA42CFCEA8EF0A4CDA8F08BF0A4B0
:100885002DCC3825F0FDE98FF0A42CCD35F0FCEB0F
:100895008EF0A4FEA9F0EB8FF0A4CFC5F02ECD39D4
:0F08A500FEE43CFCEAA42DCE35F0FDE43CFC2241
:1008B40075F008758200EF2FFFEE33FECD33CDCCFB
:1008C40033CCC58233C5829BED9AEC99E58298407E
:1008D4000CF582EE9BFEED9AFDEC99FC0FD5F0D65B
:1008E400E4CEFBE4CDFAE4CCF9A88222B800C1B985
:1008F4000059BA002DEC8BF084CFCECDFCE5F0CBC3
:10090400F97818EF2FFFEE33FEED33FDEC33FCEBFB
:1009140033FB10D703994004EB99FB0FD8E5E4F9B6
:10092400FA227818EF2FFFEE33FEED33FDEC33FCA3
:10093400C933C910D7059BE99A4007EC9BFCE99A97
:10094400F90FD8E0E4C9FAE4CCFB2275F010EF2FDC
:10095400FFEE33FEED33FDCC33CCC833C810D707DC
:100964009BEC9AE899400AED9BFDEC9AFCE899F817
:0E0974000FD5F0DAE4CDFBE4CCFAE4C8F922AA
:10156B00C2D5E830E70FB2D5E4C39BFBE49AFAE4AB
:10157B0099F9E498F8EC30E717B2D51215A11208D7
:10158B00F0E4C39BFBE49AFAE499F9E498F880033E
:10159B001208F030D50DE4C39FFFE49EFEE49DFDE1
:0415AB00E49CFC229E
:10098200E8600FECC313FCED13FDEE13FEEF13FF53
:03099200D8F12277
:10099500E86010ECA2E713FCED13FDEE13FEEF1378
:0409A500FFD8F02265
:1009A900E493FC740193FD740293FE740393FF2294
:0C09B900ECF0A3EDF0A3EEF0A3EFF022B1
:0C09C500A42582F582E5F03583F583223D
:0609D1008A838982E473B1
:1010C300021422E493A3F8E493A34003F68001F20D
:1010D30008DFF48029E493A3F85407240CC8C3332E
:1010E300C4540F4420C8834004F456800146F6DFFD
:1010F300E4800B0102040810204080900EC6E47EB9
:10110300019360BCA3FF543F30E509541FFEE493F1
:10111300A360010ECF54C025E060A840B8E493A3B8
:10112300FAE493A3F8E493A3C8C582C8CAC583CAE3
:10113300F0A3C8C582C8CAC583CADFE9DEE780BE9B
:010F7B000075
:00000001FF
